:10000000A4C00000BEC00000BCC00000BAC0000018
:10001000B8C00000B6C00000B4C00000B2C000000C
:10002000B0C00000AEC0000093C4000058C400007F
:10003000A8C00000A6C00000A4C00000A2C000002C
:10004000A0C000009EC000009CC000009AC000003C
:1000500098C0000096C0000094C0000092C000004C
:1000600090C000008EC000008CC000008AC000005C
:1000700088C0000086C0000084C0000082C000006C
:1000800080C000007EC000007CC000007AC000007C
:1000900078C0000076C0000074C0000072C000008C
:1000A00070C000006EC000006CC0000012011001A2
:1000B00002000008EB034B2001000102DC010902F1
:1000C0003E00020100C032090400000102020100EA
:1000D000052400100104240206052406000107057A
:1000E00082030800FF09040100020A00000007055E
:1000F0000402100001070583021000010403090433
:1001000018034400650061006E0020004300610098
:100110006D00650072006100000030034C00550066
:100120004600410020005500530042002D005200BF
:1001300053003200330032002000410064006100AF
:100140007000740065007200000011241FBECFEF24
:10015000DAE0DEBFCDBF11E0A0E0B1E0EAEDF5E10D
:1001600002C005900D92A631B107D9F711E0A6E1C2
:10017000B1E001C01D92A93CB107E1F729D00C9470
:10018000EB0A3ECF08950895089580E091E00C9425
:10019000FA0880E091E0E5C784B7877F84BF88E1F3
:1001A0000FB6F89480936000109260000FBE80E05C
:1001B00090E020E80FB6F8942093610080936100EE
:1001C0000FBE539A5B9A5B98AED0BAD070D3CEC0B4
:1001D0000F931F93CF93DF93DFDFE6E1F1E02FB7BB
:1001E000F89481E291E09183808393838283958365
:1001F000848381EA91E09783868380E880871286F2
:1002000011862FBF789406E111E08FB7F894209102
:100210001F01309120018FBF80911E0190E02817AF
:10022000390711F180E091E0FCD6AC0197FD1CC0CC
:10023000E801E881F9818083888199810196998319
:1002400088832E813F818217930721F48C819D81C1
:10025000998388832FB7F89489859A8501969A8720
:1002600089872FBFCA0145D18FB7F894C0911F016C
:10027000D09120018FBF22C0E0911801F0911901A7
:1002800080E091E0608149D78823D1F4F801828130
:100290009381019693838283268137818217930706
:1002A00021F484819581938382832FB7F89481858B
:1002B00092850197928781872FBF21972097E1F63A
:1002C00080E091E01BD79BD6A0CFDA01923049F0B5
:1002D000933061F09130F9F4ECEAF0E022E130E0A3
:1002E0001EC0EEEBF0E02EE330E019C0813049F0A3
:1002F000813018F0823079F408C0ECEFF0E084919E
:1003000007C0E0E0F1E0849103C0EAE1F1E084910C
:10031000282F30E004C0E0E0F0E020E030E0ED9392
:10032000FC93C901089587E184B985B185B92A9AFA
:1003300089E58CBD08958EBD0DB407FEFDCF0895EF
:1003400080E580BB80B380E48DB980E88AB983E022
:1003500080BB0895E2EAF1E01182108213821282DA
:10036000349681E0E63BF807B9F70895F3DF87E6B6
:1003700090E09093A3018093A2018FE893E0909383
:10038000A5018093A40187E490E09093A701809356
:10039000A6018DE693E09093A9018093A80186E6DB
:1003A00090E09093AB018093AA0181ED92E090934D
:1003B000AD018093AC0186E490E09093AF0180930F
:1003C000AE018FE193E09093B1018093B0018EE68E
:1003D00090E09093B3018093B20184EB92E090930C
:1003E000B5018093B4018EE490E09093B7018093BF
:1003F000B60187E992E09093B9018093B80108951E
:10040000CF93DF93EC0128813981A2EAB1E0E0E0EB
:10041000F0E08D919C9111972817390779F4EE0F30
:10042000FF1FEE0FFF1FEC55FE4F0190F081E02DF6
:10043000CE010296099520E030E007C0319614966F
:10044000E530F10531F72FEF3FEFC901DF91CF9193
:100450000895FC0111821082128208951092A10168
:1004600086EB91E0F6CFFC016736710579F06734D1
:10047000710561F06636710549F06634710531F039
:100480006E36710519F06E34710531F47183608335
:1004900081E08093A1010895E1CF1F93CF93DF9373
:1004A000EC01162F972F862F0E94940A892B31F08A
:1004B0001B831C8283E08093A10101C0CFDFDF9109
:1004C000CF911F9108951F93CF93DF93EC01162FC7
:1004D000972F862F0E94940A892B31F01A831B8252
:1004E00082E08093A10101C0B9DFDF91CF911F911C
:1004F0000895BC018091A101813051F0813028F034
:10050000823049F0833091F409C086EB91E0ABCFA3
:1005100086EB91E0D8CF86EB91E0BFCFCB010E9474
:100520009F0A892B19F086EB91E06ADF97CFDF9362
:10053000CF9300D0CDB7DEB79A838983BE016F5FBA
:100540007F4F40E150E0C4D66115710521F0613064
:10055000710529F403C082E081BB01C081B30F9013
:100560000F90CF91DF910895DF93CF9300D0CDB757
:10057000DEB79A838983BE016F5F7F4F40E150E011
:10058000A7D66115710521F06130710529F403C00A
:1005900081E081BB01C081B30F900F90CF91DF91BB
:1005A0000895DF93CF9300D0CDB7DEB79A838983C8
:1005B000BE016F5F7F4F40E150E08AD66330710526
:1005C00009F1643071054CF461307105A9F06230B5
:1005D0007105ACF4672B71F02DC065307105D9F051
:1005E000653071059CF066307105D9F06730710592
:1005F00009F51DC081B30CC081B38EB115C080E870
:1006000081BB16C080E881BB9EB10FC080E881BB72
:1006100080E48EB90EC090E891BB80E48EB99BB99E
:1006200009C081B380E48EB980E88BB903C081B37F
:100630008EB18BB10F900F90CF91DF910895DF9322
:10064000CF9300D0CDB7DEB79A838983BE016F5FA9
:100650007F4F40E150E03CD620E030E098E005C01C
:100660008BB189278BB92F5F3F4F26173707C4F30C
:100670006330710501F1643071054CF4613071052E
:10068000A9F062307105A4F4672B71F021C06530C8
:100690007105B9F0653071058CF066307105A1F017
:1006A00067307105A9F413C080E506C080E304C07B
:1006B00081B380E40AC080E181BB09C081B380E6D8
:1006C00004C081B380E201C080E781BB01C081B377
:1006D0000F900F90CF91DF910895DF93CF9300D0CB
:1006E000CDB7DEB79A838983BE016F5F7F4F40E14C
:1006F00050E0EED520E030E098E005C08BB18927CE
:100700008BB92F5F3F4F26173707C4F32898862FE2
:1007100012DE289A0F900F90CF91DF910895DF930A
:10072000CF9300D0CDB7DEB79A838983BE016F5FC8
:100730007F4F40E150E0CCD520E030E098E005C0AC
:100740008BB189278BB92F5F3F4F26173707C4F32B
:100750002C98862FF0DD2C9A0F900F90CF91DF917F
:1007600008958093E9008091EB0081608093EB0015
:100770001092ED006093EC004093ED008091EE004C
:10078000881F8827881F08958091BF0188238CF4D3
:1007900003C08EB38823B1F08091E80082FFF9CFC7
:1007A0008091E8008B778093E80008958EB38823CA
:1007B00049F08091E80080FFF9CF8091E8008E77C2
:1007C0008093E80008954091E4005091E50024E60C
:1007D0008091EC0080FF05C08091E80080FF05C09B
:1007E00021C08091E80082FD1DC08EB3882311F4E2
:1007F00082E00895853011F483E008958091EB0044
:1008000085FF02C081E008958091E4009091E500A9
:1008100084179507E9F2222311F484E0089521500A
:10082000AC01D6CF80E00895EF92FF920F931F9313
:1008300049D050D008ED10E0F8018081982F9F77C3
:1008400090838068808380818F7D808319BC1EBAED
:100850001092BD011092BC011092BB0180EEE82EF7
:10086000F12CF70180818B7F8083F801808181608A
:10087000808380E060E042E074DFE1EEF0E08081C0
:100880008E7F8083E2EEF0E08081816080838081D2
:1008900088608083F70180818E7F8083F80180816A
:1008A000806180831F910F91FF90EF900895E7ED95
:1008B000F0E08081816080838AE482BF81E0809360
:1008C000BE01B2CFE8EDF0E080818E7F8083109290
:1008D000E20008951092DA001092E10008951F924C
:1008E0000F920FB60F9211241F932F933F934F93A4
:1008F0005F936F937F938F939F93AF93BF93EF9388
:10090000FF93E9EEF0E0108117701082E0EFF0E065
:100910008081877F80837894EFD1A9EEB0E01C922C
:10092000E0EFF0E08081886080831C93FF91EF917D
:10093000BF91AF919F918F917F916F915F914F91F7
:100940003F912F911F910F900FBE0F901F90189500
:100950001F920F920FB60F9211242F933F934F9334
:100960005F936F937F938F939F93AF93BF93EF9317
:10097000FF938091E10082FF0AC08091E20082FF34
:1009800006C08091E1008B7F8093E10037D3809196
:10099000DA0080FF1CC08091D80080FF18C08091D1
:1009A000DA008E7F8093DA008091D90080FF0CC03E
:1009B00080E189BD89B5826089BD09B400FEFDCFA3
:1009C00081E08EBBDFDB03C019BC1EBADCDB80918B
:1009D000E10080FF17C08091E20080FF13C080918A
:1009E000E2008E7F8093E2008091E200806180933C
:1009F000E2008091D80080628093D80019BC85E025
:100A00008EBBFCD28091E10084FF2DC08091E2007A
:100A100084FF29C080E189BD89B5826089BD09B4A0
:100A200000FEFDCF8091D8008F7D8093D80080910B
:100A3000E1008F7E8093E1008091E2008F7E8093C1
:100A4000E2008091E20081608093E2008091BD012C
:100A5000882331F48091E30087FD02C081E001C06A
:100A600084E08EBBCBD28091E10083FF26C08091D1
:100A7000E20083FF22C08091E100877F8093E10044
:100A800082E08EBB1092BD018091E1008E7F809349
:100A9000E1008091E2008E7F8093E2008091E2008D
:100AA00080618093E20080E060E042E05ADE809165
:100AB000F00088608093F000A1D2FF91EF91BF9188
:100AC000AF919F918F917F916F915F914F913F91E6
:100AD0002F910F900FBE0F901F9018959C01409181
:100AE000C5015091C6014617570718F4F90190E067
:100AF00044C06115710511F0AB01F8CF8091E80099
:100B00008E778093E80040E050E0F0CF8EB38823EA
:100B100009F444C0853009F443C08091E80083FFA4
:100B200002C081E008958091E80082FD31C080918B
:100B3000E80080FF22C08091F3009091F200782FAE
:100B400060E0292F30E0262B372B07C0819180935E
:100B5000F100415050402F5F3F4F4115510519F0B2
:100B60002830310598F390E02830310509F491E000
:100B70008091E8008E778093E8004115510531F6A9
:100B8000992321F605C08EB3882341F0853041F0CA
:100B90008091E80082FFF7CF80E0089582E0089519
:100BA00083E008959C016115710529F48091E800A6
:100BB0008B778093E800F90126C08EB3882391F1EA
:100BC000853091F18091E80083FF02C081E00895B3
:100BD0008091E80082FFF1CF06C08091F1008193FF
:100BE0006150704059F02091F3008091F200322F53
:100BF00020E090E0822B932B892B79F78091E800FD
:100C00008B778093E80061157105B9F605C08EB346
:100C1000882341F0853041F08091E80080FFF7CFD4
:100C200080E0089582E0089583E008959C0140915A
:100C3000C5015091C6014617570718F4F90190E015
:100C400045C06115710511F0AB01F8CF8091E80046
:100C50008E778093E80040E050E0F0CF8EB3882399
:100C600009F446C0853009F445C08091E80083FF4F
:100C700002C081E008958091E80082FD33C0809138
:100C8000E80080FF23C08091F3009091F200782F5C
:100C900060E0292F30E0262B372B08C08491809309
:100CA000F1003196415050402F5F3F4F41155105A3
:100CB00019F02830310590F390E02830310509F41F
:100CC00091E08091E8008E778093E800411551050E
:100CD00029F6992309F0C2CF05C08EB3882341F0CD
:100CE000853041F08091E80082FFF7CF80E00895E1
:100CF00082E0089583E008950F931F93DF93CF93CD
:100D0000CDB7DEB7AC970FB6F894DEBF0FBECDBF40
:100D10008091F1008093BF018091F1008093C00128
:100D20008091F1009091F100E1ECF1E08093C1013C
:100D30009093C2018091F1009091F1008093C301E2
:100D400093838091F1009091F1008093C501958388
:100D50001CDA8091E80083FF38C18091BF01309197
:100D6000C001353009F487C0363040F43130C9F164
:100D7000313070F0333009F028C133C0383009F415
:100D8000F7C0393009F406C1363009F01EC198C0E9
:100D9000803821F0823809F018C108C09091BB0159
:100DA0008091BC01882399F0926011C08091C301A9
:100DB00087708093E9008091EB0090E025E09695A4
:100DC00087952A95E1F7982F91701092E90080910C
:100DD000E800877F8093E8009093F1001092F10083
:100DE000D2C0882319F0823009F0EFC090E08F71F3
:100DF0009070009721F0029709F0E7C00CC0809135
:100E0000C101813009F0E1C01092BC01333069F5B5
:100E10008093BC012AC08091C101882331F52091C3
:100E2000C301277009F4D1C02093E9008091EB0041
:100E300080FF1BC0333021F48091EB00806213C02F
:100E40008091EB0080618093EB0081E090E002C034
:100E5000880F991F2A95E2F78093EA001092EA0022
:100E60008091EB0088608093EB001092E900809104
:100E7000E800877F8BC0882309F0A7C01091C101CB
:100E80001F770FB7F8948091E800877F8093E80080
:100E90007BDC8091E80080FFFCCF8091E3008078CC
:100EA000812B8093E3008091E30080688093E300CE
:100EB000112311F482E001C083E08EBB0FBF85C017
:100EC0008058823008F081C08091C1019091C201A8
:100ED00023E08C3D920709F033C083E08C838AE2E3
:100EE0008B837FB7F894DE0115966EE040E050E00A
:100EF00011E2E62FF0E010935700849140FF03C009
:100F000082958F706F5F8F70282F30E08A3018F0D5
:100F1000C901C79602C0C901C0968D939D934F5FCA
:100F20005F4F4431510529F77FBF8091E800877FEB
:100F30008093E800CE0103966AE270E0CFDD12C034
:100F40006091C301AE014F5F5F4FBFD9BC010097F5
:100F500009F43BC08091E800877F8093E800898195
:100F60009A8164DE8091E8008B778093E8002DC041
:100F7000803859F58091E800877F8093E800809160
:100F8000BD018093F1008091E8008E778093E800A6
:100F9000FBDB1BC08823C9F49091C1019230A8F4F7
:100FA0008091E800877F8093E8009093BD01ECDB9F
:100FB0008091BD01882331F48091E30087FD02C058
:100FC00081E001C084E08EBBE4D88091E80083FF1B
:100FD0000AC08091EB0080628093EB008091E80072
:100FE000877F8093E800AC960FB6F894DEBF0FBE03
:100FF000CDBFCF91DF911F910F91089508951F9359
:101000008EB3882361F01091E9001092E90080917D
:10101000E80083FF01C070DE17701093E9001F9194
:101020000895FC018EB3843091F587859089A1895C
:10103000B2890097A105B10551F185818093E9003E
:101040008091E80082FF23C04091F3002091F200DC
:10105000942F80E030E0822B932B892B19F46FEFD3
:101060007FEF04C08091F100682F70E04091F300A1
:101070002091F200942F80E030E0822B932B892B7B
:1010800041F48091E8008B778093E80002C06FEF15
:101090007FEFCB0108950895FC018EB3843049F5AC
:1010A00087859089A189B2890097A105B10509F1C9
:1010B00081818093E9004091F3002091F200942F08
:1010C00080E030E0822B932B892BA9F09091E800EF
:1010D0008091E8008E778093E80095FD0CC073DB6B
:1010E000982F882349F48091E8008E778093E80058
:1010F00003C092E001C090E0892F0895FC018EB3F7
:10110000843051F487859089A189B2890097A1051F
:10111000B10511F0CF01C0CF08951F93FC01162F28
:101120008EB38430D9F487859089A189B2890097DC
:10113000A105B10599F081818093E9008091E800D3
:1011400085FD08C08091E8008E778093E8003BDB46
:10115000882329F41093F10080E001C082E01F9100
:1011600008951F93CF93DF93EC010D96FC0189E066
:10117000DF011D928A95E9F711E08981181729F49A
:10118000EA81FB818C8162E010C08D81181731F4F7
:10119000EE81FF81888562E030E008C089851817FC
:1011A00009F5EA85FB858C8563E031E0882311F43D
:1011B00040E001C044E020E088E090E003C02F5F01
:1011C000880F991F8E179F07D0F36295660F660FE1
:1011D000607C632B42602295207F422B812FC1DAF5
:1011E000882321F01F5F173041F681E0DF91CF9116
:1011F0001F910895CF93DF93EC018091E80083FF66
:1012000064C0888190E02091C3013091C401281707
:10121000390709F05AC08091C001813261F08232F1
:1012200020F4803209F051C01BC0823281F1833238
:1012300009F04BC03CC08091BF01813A09F045C024
:101240008091E800877F8093E800CE010F9667E0E9
:1012500070E044DC8091E8008B778093E80035C033
:101260008091BF01813289F58091E800877F80936A
:10127000E800CE010F9667E070E094DC8091E80012
:101280008E778093E800CE010E94C4001EC080913A
:10129000BF018132D1F48091E800877F8093E8001C
:1012A00073DA8091C1018D87CE01F5DE0EC0809189
:1012B000BF01813251F48091E800877F8093E8007C
:1012C00063DACE016091C101E6DEDF91CF9108952E
:1012D0002F923F925F926F927F928F929F92AF92E6
:1012E000BF92CF92DF92EF92FF920F931F93CF9313
:1012F000DF938C011B01EA016115710519F0FB01F7
:1013000091838083209749F0CE010297839728F03C
:1013100020E030E040E050E0F3C0F801A1908F0100
:101320008A2D90E00CD1892BC1F7FDE2AF1631F484
:10133000F801A1908F015524539407C0FBE2AF162A
:1013400019F4F801A1908F015524209719F0C031AC
:10135000D105C1F4F0E3AF1679F4F8018081883744
:1013600011F0883549F4F801A1800E5F1F4FF2E0BB
:101370005F2AC0E1D0E006C0209721F480E3A816E0
:10138000E9F427C0C830D10531F1C930D10524F4C2
:10139000C230D10531F50CC0CA30D10589F0C03159
:1013A000D105F9F4C12CD12CE12CB8E0FB2E27C0DB
:1013B000C12CD12CE12CA0E4FA2E21C0CAE0D0E04F
:1013C000FCECCF2EFCECDF2EFCECEF2EFCE0FF2E35
:1013D00016C0C8E0D0E0C12CD12CE12CE0E1FE2EFB
:1013E0000EC09E01442737FD4095542F60E070E009
:1013F00080E090E8CED0C901DA016C017D0120E0E7
:1014000030E040E050E060E03E01882477FC8094CA
:10141000982C70EDB72EBA0CE9E0EB1570F48A2D1C
:1014200081548A3118F499ECB92E06C08A2D815660
:101430008A3148F589EAB82EBA0C8B2D90E08C17CA
:101440009D070CF56F3FD9F0C216D306E406F506EA
:10145000A8F0CA01B901A40193017CD09B01AC01A1
:101460002B0D311D411D511D2130F0E03F07F0E0F3
:101470004F07F0E85F0710F461E001C06FEFF8017B
:10148000A1908F01C6CF2114310481F0662331F081
:1014900001501040F1011183008308C051FE1AC0B1
:1014A00002501040F1011183008314C067FF12C085
:1014B00050FC05C02FEF3FEF4FEF5FE704C020E087
:1014C00030E040E050E882E290E09093C8018093E1
:1014D000C70116C050FE08C0509540953095219523
:1014E0003F4F4F4F5F4F0CC057FF0AC082E290E062
:1014F0009093C8018093C7012FEF3FEF4FEF5FE755
:10150000B901CA01DF91CF911F910F91FF90EF9028
:10151000DF90CF90BF90AF909F908F907F906F9013
:101520005F903F902F900895911111C080538A5081
:1015300028F0865C806281568650B8F70895911134
:1015400006C0803219F089508550D0F70895992748
:1015500088270895629FD001739FF001829FE00D5C
:10156000F11D649FE00DF11D929FF00D839FF00D22
:10157000749FF00D659FF00D9927729FB00DE11DCE
:10158000F91F639FB00DE11DF91FBD01CF011124AB
:101590000895A1E21A2EAA1BBB1BFD010DC0AA1FB4
:1015A000BB1FEE1FFF1FA217B307E407F50720F0CC
:1015B000A21BB30BE40BF50B661F771F881F991F47
:1015C0001A9469F760957095809590959B01AC0190
:0A15D000BD01CF010895F894FFCF8C
:1015DA0000031000000410000002080000000000D0
:0615EA00000000000000FB
:00000001FF
